:020000040800F2
:1000000000500020051C00088D0400088F04000823
:100010009104000893040008950400080000000003
:10002000000000000000000000000000970400082D
:1000300099040008000000009B0400089D040008CB
:100040004D1C00084D1C00084D1C00084D1C0008EC
:100050004D1C00084D1C00084D1C00084D1C0008DC
:100060004D1C00084D1C00084D1C00084D1C0008CC
:100070004D1C00084D1C00084D1C00084D1C0008BC
:100080004D1C00084D1C00084D1C00084D1C0008AC
:100090004D1C00084D1C00084D1C00084D1C00089C
:1000A0004D1C00084D1C00084D1C00084D1C00088C
:1000B000A50400084D1C00084D1C00084D1C00083C
:1000C0004D1C00084D1C00084D1C00084D1C00086C
:1000D0004D1C0008B50400084D1C00084D1C00080C
:1000E0004D1C00084D1C00084D1C000800000000BD
:1000F0000000000000000000000000000000000000
:0C01000000000000000000005FF808F1A3
:10010C0010B5054C237833B9044B13B10448AFF345
:10011C0000800123237010BD2C0000200000000083
:10012C00A81C000808B5034B1BB103490348AFF3E7
:10013C00008008BD0000000030000020A81C000852
:10014C0070B50A4C6568266800F06CFA00F0E6F9A8
:10015C004FF0E02300221A615A619A6103F5506353
:10016C009C6086F30888A84770BD00BF004000085B
:10017C0072B6FEE700B591B02822002106A801F066
:10018C0085FD0023019302930393049305930223AB
:10019C00069301230A9310230B9306A800F0BCFAD4
:1001AC0068B90F23019300210291039104910591E9
:1001BC0001A800F0EFFC20B911B05DF804FBFFF7CB
:1001CC00D7FFFFF7D5FF000008B500F0DDF9FFF70A
:1001DC00D1FF00F023F800F05DF800F0F3F800F028
:1001EC007FF84FF480510B4800F0C2FE78B10A4CF6
:1001FC0001221021204600F0C2FE4FF4FA6000F0FC
:10020C00E7F900221021204600F0B9FEFEE7FFF7C7
:10021C0097FFFBE7000C01400008014030B587B0A8
:10022C0000240294039404940594174B9A6942F0A9
:10023C0004029A619A6902F004020092009A9A6987
:10024C0042F008029A619B6903F008030193019B39
:10025C000E4D22461021284600F091FE10230293E9
:10026C000123039304940223059302A9284600F06A
:10027C006DFD4FF4805302930394049402A9044837
:10028C0000F064FD07B030BD0010024000080140D2
:10029C00000C014008B50548054B036000F02EF931
:1002AC0000B908BDFFF764FFFBE700BF4800002062
:1002BC00003002400268094B9A4200D0704782B06D
:1002CC00A3F500535A6942F040025A615B6903F08E
:1002DC0040030193019B02B0704700BF0030024005
:1002EC0000B58FB000230A930B930C930D930893D6
:1002FC000993019302930393049305930693079335
:10030C0020484FF08042026041F63F7242608360A9
:10031C0040F2E732C26003618023836101F0BEF8D2
:10032C0000BB4FF480530A930AA9164801F075F9E3
:10033C00D8B9144801F0DEF8D0B90023089309931A
:10034C0008A9104801F0D6F9A8B90022019202922E
:10035C000392059201A90B4801F02AF970B90FB06C
:10036C005DF804FBFFF704FFDBE7FFF701FFE0E7B5
:10037C00FFF7FEFEE1E7FFF7FBFEE6E7FFF7F8FE0F
:10038C00EDE700BF500000200368B3F1804F00D0B0
:10039C00704700B583B003F50433DA6942F001020B
:1003AC00DA61DB6903F001030193019B0022114622
:1003BC001C2000F06BFE1C2000F0A0FE03B05DF8CA
:1003CC0004FB000008B50A480A4B03604FF4E13304
:1003DC00436000238360C36003610C22426183612C
:1003EC00C36101F053FA00B908BDFFF7C1FEFBE78A
:1003FC00980000200038014030B587B000230293EC
:10040C0003930493059302681B4B9A4201D007B0E7
:10041C0030BD03F558439A6942F480429A619A6957
:10042C0002F480420092009A9A6942F004029A61A6
:10043C009B6903F004030193019B4FF40073029337
:10044C0002230393032305930C4D02A9284600F0C5
:10045C007DFC4FF48063029300240394049402A95E
:10046C00284600F073FC22462146252000F00EFEA3
:10047C00252000F043FECAE7003801400008014087
:10048C00FEE7FEE7FEE7FEE7FEE7704770477047C2
:10049C0008B500F08BF808BD08B5024800F007FF5E
:1004AC0008BD00BF5000002008B5024801F0A0FABA
:1004BC0008BD00BF9800002082B00E4B9A6942F034
:1004CC0001029A619A6902F001020092009ADA69BB
:1004DC0042F08052DA61DB6903F080530193019B97
:1004EC00054A536823F0E06343F00073536002B095
:1004FC00704700BF001002400000014058B110B519
:10050C00044643791BB101236371002010BD0371B4
:10051C00FFF7D0FEF7E701207047704710B5064B88
:10052C004FF0FF32DA6000241C61DA60DC60FFF708
:10053C00F4FF204610BD00BF0010024010B5044669
:10054C000E4B18784FF47A73B3FBF0F30C4A106827
:10055C00B0FBF3F000F0E0FD68B90F2C01D90120DD
:10056C000AE0002221464FF0FF3000F08FFD054BD2
:10057C001C60002000E0012010BD00BF2000002006
:10058C00280000202400002008B5074A136843F017
:10059C0010031360032000F067FD0020FFF7CEFF6F
:1005AC00FFF78AFF002008BD00200240034A1168B3
:1005BC00034B1B780B441360704700BFDC0000201A
:1005CC0020000020014B1868704700BFDC000020A1
:1005DC0038B50446FFF7F6FF0546B4F1FF3F02D0ED
:1005EC00044B1B781C44FFF7EDFF401BA042FAD3D1
:1005FC0038BD00BF2000002082B0084B1B68084AA1
:10060C00A2FB03235B0A00FB03F3019300BF019BD6
:10061C005A1E0192002BF9D102B07047280000201D
:10062C00D34D621070B5FFF7CDFF0446364A136800
:10063C0043F001031360344B1B6813F0020F07D116
:10064C00FFF7C0FF001B0228F5D90324204670BD1C
:10065C002D4D2B6823F0F80343F080032B60FFF73C
:10066C00B1FF044600236B60274B5B6813F00C0F43
:10067C0008D0FFF7A7FF001B41F288339842F3D94B
:10068C000324E3E7214B224A1A60224B1868FFF738
:10069C0055FF044608B10124D8E7FFF793FF054640
:1006AC00194A136823F080731360174B1B6813F0FF
:1006BC00007F06D0FFF786FF401B0228F5D90324E4
:1006CC00C4E7114E00237360FFF77CFF05463368C7
:1006DC0023F4102333600C4B1B6813F4003F06D03B
:1006EC00FFF770FF401B6428F5D90324AEE7064BD7
:1006FC001A6822F480221A605A6A42F080725A6296
:10070C0000229A60A2E700BF0010024028000020DF
:10071C0000127A0024000020002800F0F18170B54E
:10072C0082B00446036813F0010F2CD0994B5B6820
:10073C0003F00C03042B1DD0964B5B6803F00C03E9
:10074C00082B12D06368B3F5803F41D0002B55D1F4
:10075C0003F1804303F504331A6822F480321A60E3
:10076C001A6822F480221A6037E08A4B5B6813F413
:10077C00803FE7D0874B1B6813F4003F03D06368BE
:10078C00002B00F0BF81236813F0020F75D0814B52
:10079C005B6813F00C0F5FD07E4B5B6803F00C03AF
:1007AC00082B54D02369002B00F08A807A4B01224D
:1007BC001A60FFF707FF0546764B1B6813F0020F14
:1007CC0075D1FFF7FFFE401B0228F5D903209EE1EF
:1007DC00704A136843F480331360636843B3FFF7C4
:1007EC00F1FE05466B4B1B6813F4003FCBD1FFF7B2
:1007FC00E9FE401B6428F5D9032088E1B3F5A02F4E
:10080C0009D0644B1A6822F480321A601A6822F4F8
:10081C0080221A60E1E703F18043A3F53C331A68A8
:10082C0042F480221A601A6842F480321A60D4E7CB
:10083C00FFF7C8FE0546574B1B6813F4003FA2D0C8
:10084C00FFF7C0FE401B6428F5D903205FE1514B34
:10085C005B6813F4803FA5D14E4B1B6813F0020F5D
:10086C0003D02369012B40F04F814A4A136823F0CF
:10087C00F803616943EAC1031360236813F0080F9E
:10088C0033D0A369002B5CD0434B0122C3F88024E6
:10089C00FFF798FE05463F4B5B6A13F0020F21D120
:1008AC00FFF790FE401B0228F5D903202FE1394AAF
:1008BC00136823F0F803616943EAC1031360DCE7B2
:1008CC00354B00221A60FFF77DFE0546314B1B6845
:1008DC0013F0020FD1D0FFF775FE401B0228F5D99B
:1008EC00032014E10120FFF787FE236813F0040FA7
:1008FC0000F09680274BDB6913F0805F34D1254BD9
:10090C00DA6942F08052DA61DB6903F080530193BB
:10091C00019B0125214B1B6813F4807F26D0E368D3
:10092C00012B3DD0002B53D103F1804303F504334D
:10093C001A6A22F001021A621A6A22F004021A627E
:10094C0033E0154B0022C3F88024FFF73BFE05462D
:10095C00104B5B6A13F0020FC7D0FFF733FE401B3E
:10096C000228F5D90320D2E00025D3E70B4A1368FF
:10097C0043F480731360FFF725FE0646074B1B6894
:10098C0013F4807FCBD1FFF71DFE801B6428F5D9B3
:10099C000320BCE000100240000042420070004006
:1009AC005F4A136A43F001031362E36833B3FFF742
:1009BC0009FE06465A4B1B6A13F0020F2FD1FFF7A4
:1009CC0001FE801B41F288339842F3D903209EE04C
:1009DC00052B09D0524B1A6A22F001021A621A6ACC
:1009EC0022F004021A62E0E74D4B1A6A42F004024C
:1009FC001A621A6A42F001021A62D6E7FFF7E2FDA8
:100A0C000646474B1B6A13F0020F08D0FFF7DAFDBE
:100A1C00801B41F288339842F3D9032077E0E5B983
:100A2C00E369002B72D03E4A526802F00C02082A8D
:100A3C0056D0022B17D03B4B00221A66FFF7C2FD93
:100A4C000446374B1B6813F0007F47D0FFF7BAFD05
:100A5C00001B0228F5D9032059E0314AD36923F051
:100A6C008053D361DCE72F4B00221A66FFF7AAFDF7
:100A7C0005462B4B1B6813F0007F06D0FFF7A2FD39
:100A8C00401B0228F5D9032041E0236AB3F5803FCF
:100A9C001AD023494B6823F47413226A606A024308
:100AAC0013434B601F4B01221A66FFF78BFD044664
:100ABC001B4B1B6813F0007F0ED1FFF783FD001B4F
:100ACC000228F5D9032022E0154A536823F4003399
:100ADC00A1680B435360DCE7002018E0002016E00F
:100AEC00012B16D00E4B5B6803F48031226A9142C5
:100AFC0011D103F47013626A93420ED1002006E008
:100B0C0001207047012002E0012000E0002002B02B
:100B1C0070BD0120FBE70120F9E70120F7E700BFDA
:100B2C00001002400000424286B0164B0FCB0DF174
:100B3C00180C0CE90F0040F20123ADF80430124BF5
:100B4C005B6803F00C02082A02D0104806B070470C
:100B5C00C3F38342624412F8100C13F4803F0CD0A0
:100B6C00094B5B68C3F34043634413F8143C074AD6
:100B7C0002FB00F0B0FBF3F0E8E7054B03FB00F0E1
:100B8C00E4E700BFC01C00080010024000127A000D
:100B9C0000093D00002800F0A08070B50D46044609
:100BAC00524B1B6803F007038B420BD24F4A13685E
:100BBC0023F007030B431360136803F007038B4206
:100BCC0040F08D80236813F0020F17D013F0040F40
:100BDC0004D0474A536843F4E0635360236813F02E
:100BEC00080F04D0424A536843F460535360404AA0
:100BFC00536823F0F003A1680B435360236813F090
:100C0C00010F31D06368012B20D0022B25D0384A3C
:100C1C00126812F0020F64D035494A6822F00302C0
:100C2C0013434B60FFF7CEFC0646314B5B6803F079
:100C3C000C036268B3EB820F16D0FFF7C3FC801B6A
:100C4C0041F288339842F0D9032045E0284A1268D3
:100C5C0012F4003FE0D101203EE0254A126812F068
:100C6C00007FD9D1012037E0204B1B6803F007032C
:100C7C00AB420AD91D4A136823F007032B431360B8
:100C8C00136803F00703AB422DD1236813F0040F54
:100C9C0006D0174A536823F4E063E1680B435360B2
:100CAC00236813F0080F07D0114A536823F46053DC
:100CBC00216943EAC1035360FFF736FF0C4B5B68B5
:100CCC00C3F303130B4AD35CD8400B4B18600B4B8C
:100CDC001868FFF733FC002070BD0120704701201D
:100CEC00FAE70120F8E70120F6E700BF00200240F8
:100CFC0000100240D41C0008280000202400002012
:100D0C00014B1868704700BF2800002008B5FFF79A
:100D1C00F7FF044B5B68C3F30223034AD35CD84050
:100D2C0008BD00BF00100240E41C000808B5FFF726
:100D3C00E7FF044B5B68C3F3C223034AD35CD84080
:100D4C0008BD00BF00100240E41C000870B582B062
:100D5C000024A446A6E0804DAA4210D007D97F4DAE
:100D6C00AA420CD005F58035AA4208D013E0A5F5AF
:100D7C008015AA4203D005F57025AA4207D18A68CE
:100D8C00002A58D0012A51D04361082403E0A5F56C
:100D9C008015AA42F3D0BEF1FF0F4ED80646BEF125
:100DAC00FF0F4CD84FEA8C0233680F25954023EA8D
:100DBC00050304FA02F2134333604B6813F0805FAF
:100DCC006ED0674B9A6942F001029A619B6903F0FD
:100DDC0001030193019B4FEA9C02951C614B53F854
:100DEC0025600CF003039D000F23AB4026EA03069D
:100DFC005D4B984229D003F58063984200F08E80B9
:100E0C0003F58063984200F08B8003F58063984271
:100E1C0019D004231AE0CC68BDE7CC680434BAE7D7
:100E2C00CC680834B7E7CC680C34B4E70361082409
:100E3C00B1E70024AFE70424ADE7061DAFE7ACF142
:100E4C0008029200B0E7032300E00023AB403343D9
:100E5C000232444D45F822304B6813F4803F61D088
:100E6C00424A136843EA0E0313604B6813F4003FC5
:100E7C005ED03E4A536843EA0E0353604B6813F44A
:100E8C00801F5BD0394A936843EA0E0393604B682A
:100E9C0013F4001F58D0354AD36843EA0E03D360CD
:100EAC000CF1010C0A6832FA0CF353D0012303FA4B
:100EBC000CF302EA030E33EA0202F1D14A68122A59
:100ECC003FF649AF122A3FF666AF01A555F822F05E
:100EDC008B0D0008230E00082D0E00083F0E000895
:100EEC00A30D0008A30D0008A30D0008A30D000816
:100EFC00A30D0008A30D0008A30D0008A30D000806
:100F0C00A30D0008A30D0008A30D0008A30D0008F5
:100F1C00A30D0008270E0008330E0008012395E7E7
:100F2C00022393E7114A136823EA0E0313609CE72C
:100F3C000E4A536823EA0E0353609FE70B4A9368EB
:100F4C0023EA0E039360A2E7084AD36823EA0E0350
:100F5C00D360A5E702B070BD000022100000311074
:100F6C000010024000000140000801400004014054
:100F7C008368194201D001207047002070470AB1E4
:100F8C000161704709040161704790F82130022B10
:100F9C0006D004238363002380F82030012070479F
:100FAC000268136823F00E0313600268136823F0C1
:100FBC0001031360036CC16B012202FA03F34B6053
:100FCC0080F82120002380F820301846704700005C
:100FDC0008B590F82130022B03D004238363012041
:100FEC0008BD0268136823F00E03136002681368CF
:100FFC0023F0010313600368194A934214D014328E
:10100C0093421FD0143293421ED0143293421ED0FE
:10101C00143293421ED01432934202D04FF080729D
:10102C0003E04FF4801200E001220E4B5A600123C2
:10103C0080F82130002380F82030436B6BB1984747
:10104C000020CDE71022F0E74FF48072EDE74FF46B
:10105C008052EAE74FF48032E7E70020C0E700BF98
:10106C000800024000000240074AD36823F4E06302
:10107C001B041B0C000200F4E060034343F0BF634D
:10108C0043F40033D360704700ED00E000B5194B1A
:10109C00DB68C3F30223C3F1070CBCF1040F28BFB8
:1010AC004FF0040C03F1040EBEF1060F18D9033BEC
:1010BC004FF0FF3E0EFA0CFC21EA0C0199400EFA9F
:1010CC0003F322EA0303194300280BDB0901C9B21D
:1010DC0000F1604000F5614080F800135DF804FBFE
:1010EC000023E5E700F00F000901C9B2024B1954C7
:1010FC00F4E700BF00ED00E014ED00E0002807DB92
:10110C0000F01F02400901239340024A42F82030AC
:10111C00704700BF00E100E00138B0F1807F0BD2D6
:10112C004FF0E0235861054AF02182F8231000208B
:10113C00986107221A6170470120704700ED00E0AA
:10114C0070B4036A23F001030362036A4668826980
:10115C0022F073020C6844EA020523F002028B6849
:10116C0013430D4CA04209D00B4CA0420DD046604D
:10117C0085614A684263036270BC704723F00803C0
:10118C00CA68134323F00403EEE726F440764A6959
:10119C0032438E691643EAE7002C014030B4036AEF
:1011AC0023F480730362036A4568C26922F07302F8
:1011BC000C68224323F400738C6843EA04230F4C1D
:1011CC00A04209D00D4CA0420ED04560C2614A68C5
:1011DC00C263036230BC704723F40063CC6843EAFB
:1011EC00042323F48063EDE725F440554C6945EA6C
:1011FC0004158C6945EA0415E7E700BF002C014093
:10120C0030B4036A23F480530362036A4468C269EE
:10121C0022F4E6420D6842EA052223F400538D685D
:10122C0043EA0533074DA84206D04460C2614A68C0
:10123C000264036230BC704724F480444D6944EA74
:10124C008514F2E7002C014010B4036A046A24F000
:10125C0001040462846924F0F00C4CEA021223F0BD
:10126C000A030B438261036210BC704710B4046A1A
:10127C0024F0100404628469036A24F4704C4CEA70
:10128C00023223F0A00343EA01138261036210BC13
:10129C007047836823F070030B4343F007038360AC
:1012AC00704770477047704770477047704710B56C
:1012BC00044603681A6912F0020F11D0DA6812F0B2
:1012CC00020F0DD06FF002021A610123037703683D
:1012DC009B6913F0030F70D0FFF7E6FF0023237711
:1012EC0023681A6912F0040F12D0DA6812F0040F96
:1012FC000ED06FF004021A610223237723689B69D6
:10130C0013F4407F5FD02046FFF7CEFF00232377F6
:10131C0023681A6912F0080F12D0DA6812F0080F5D
:10132C000ED06FF008021A61042323772368DB695F
:10133C0013F0030F4ED02046FFF7B6FF00232377A0
:10134C0023681A6912F0100F12D0DA6812F0100F1D
:10135C000ED06FF010021A61082323772368DB6923
:10136C0013F4407F3DD02046FFF79EFF00232377E8
:10137C0023681A6912F0010F03D0DA6812F0010F1A
:10138C0036D123681A6912F0800F03D0DA6812F094
:10139C00800F34D123681A6912F0400F03D0DA6839
:1013AC0012F0400F32D123681A6912F0200F03D0CB
:1013BC00DA6812F0200F30D110BDFFF774FF204611
:1013CC00FFF773FF8AE72046FFF76DFF2046FFF714
:1013DC006CFF9BE72046FFF766FF2046FFF765FF93
:1013EC00ACE72046FFF75FFF2046FFF75EFFBDE747
:1013FC006FF001021A612046FFF754FFC1E76FF04E
:10140C0080021A61204600F0ACF9C3E76FF040028D
:10141C001A612046FFF74AFFC5E76FF020021A61F8
:10142C00204600F09DF9C7E703681B4A90420AD09A
:10143C00B0F1804F07D0A2F59432904203D002F560
:10144C008062904203D123F070034A681343124A1E
:10145C0090420AD0B0F1804F07D0A2F5943290425E
:10146C0003D002F58062904203D123F44073CA6822
:10147C00134323F080034A69134303608B68C362F0
:10148C000B688362044B984202D00123436170477E
:10149C000B690363F9E700BF002C014040B310B5A2
:1014AC00044690F83D30F3B1022384F83D302146D8
:1014BC0051F8040BFFF7B8FF012384F8463084F889
:1014CC003E3084F83F3084F8403084F8413084F862
:1014DC00423084F8433084F8443084F8453084F842
:1014EC003D30002010BD80F83C30FEF74DFFDBE7AF
:1014FC000120704740B310B5044690F83D30F3B16D
:10150C00022384F83D30214651F8040BFFF78CFF81
:10151C00012384F8463084F83E3084F83F3084F858
:10152C00403084F8413084F8423084F8433084F8F9
:10153C00443084F8453084F83D30002010BD80F8EC
:10154C003C30FFF7AEFEDBE70120704730B4036A96
:10155C0023F010030362036A4468826922F4E642B2
:10156C000D6842EA052223F020038D6843EA051337
:10157C000E4DA84209D00D4DA8420ED04460826198
:10158C004A688263036230BC704723F08003CD68E5
:10159C0043EA051323F04003EDE724F440644D695E
:1015AC0044EA85048D6944EA8504E7E7002C014090
:1015BC0090F83C30012B22D010B50446012380F862
:1015CC003C300C2A0BD8DFE802F0070A0A0A0E0A94
:1015DC000A0A120A0A0A16000068FFF7B1FD002079
:1015EC0084F83C0010BD0068FFF7B0FFF7E7006817
:1015FC00FFF7D4FDF3E70068FFF702FEEFE70220E8
:10160C00704710B4846824F47F4C42EA03220A43E6
:10161C0042EA0C02826010BC704790F83C30012BFF
:10162C0066D010B50446012380F83C30022380F8C4
:10163C003D300268936823F47F4323F07703936073
:10164C000B68602B40D022D8402B47D00BD9502BA5
:10165C000ED1CA6849680068FFF7F6FD5021206872
:10166C00FFF717FE04E0202B0CD008D9302B09D043
:10167C00012384F83D30002084F83C0010BD0BB1F0
:10168C00102BF5D119462068FFF703FEF0E7702BFD
:10169C000ED0B3F5005FEBD1CB684A68896800685F
:1016AC00FFF7AFFF2268936843F480439360DFE752
:1016BC00CB684A6889680068FFF7A3FF22689368C3
:1016CC0043F077039360D3E7CA6849680068FFF773
:1016DC00CDFD60212068FFF7DCFDC9E7CA684968C9
:1016EC000068FFF7B1FD40212068FFF7D2FDBFE78E
:1016FC000220704790F83C30012B2CD010B4012301
:10170C0080F83C30022380F83D3003685A689C68AE
:10171C0022F0700C0A6842EA0C025A6003680F4A05
:10172C0093420AD0B3F1804F07D0A2F59432934282
:10173C0003D002F58062934204D124F080044A68FD
:10174C0014439C60012380F83D30002380F83C302A
:10175C00184610BC70470220704700BF002C014097
:10176C00704770470268D36823F49073D3600268A3
:10177C00536923F001035361036B012B05D0202324
:10178C0080F83E300023036370470268D36823F06F
:10179C001003D360F3E790F83D30DBB2212B01D07E
:1017AC00022070478368B3F5805F17D0036A5A1C18
:1017BC0002621A7803685A60C38C9BB2013B9BB2DD
:1017CC00C3844BB90268D36823F08003D3600268EA
:1017DC00D36843F04003D360002070470369002BAB
:1017EC00E4D1036A1B880268C3F308035360036ADD
:1017FC0002330362E0E7000010B504460268136987
:10180C0023F44053C1680B4313618368026913438B
:10181C0042691A430168CB6823F4B05323F00C03DC
:10182C001343CB600268536923F4407381690B4303
:10183C0053610268134B9A4220D0FFF767FA0246B5
:10184C0002EB820202EB820263689B00B2FBF3F2B2
:10185C000D48A0FB02314909642303FB11231B0132
:10186C003233A0FB03235B0903F0F00202EB0112FD
:10187C0003F00F03216813448B6010BDFFF756FA79
:10188C000246DDE7003801401F85EB5158B310B517
:10189C00044690F83D300BB3242384F83D30226885
:1018AC00D36823F40053D3602046FFF7A5FF2268CA
:1018BC00136923F4904313612268536923F02A03BC
:1018CC0053612268D36843F40053D3600020206432
:1018DC00202384F83D3084F83E3010BD80F83C3035
:1018EC00FEF78AFDD8E701207047704708B50168FC
:1018FC00CA6822F04002CA60202280F83D20FFF71F
:10190C00F4FF002008BD7047704708B5406A0023FB
:10191C00C385C384FFF7F8FF08BD704790F83E30CD
:10192C00DBB2222B60D18368B3F5805F46D0826A2C
:10193C00B3F5805F04D0002B4DD10369002B4AD145
:10194C0003685B681370836A01338362C38D9BB237
:10195C00013B9BB2C385002B48D100B583B0026814
:10196C00D36823F02003D3600268D36823F4807318
:10197C00D3600268536923F001035361202380F87C
:10198C003E30036B012B2CD1002303630268D36818
:10199C0023F01003D36003681A6812F0100F06D0FE
:1019AC00002201921A6801925B680193019B818D60
:1019BC00FFF7B3FF002003B05DF804FB0269002AB7
:1019CC00B5D1826A03685B68C3F308031380836A2A
:1019DC0002338362BAE703685B6803F07F0313701A
:1019EC00B1E7FFF790FFE5E7022070470020704752
:1019FC0030B583B0044602681368D068516913F09F
:101A0C000F0505D113F0200F02D010F0200F19D1C3
:101A1C002DB111F0010119D110F4907F16D1216B69
:101A2C00012975D013F0800F03D010F0800F40F017
:101A3C00D78013F0400F03D010F0400F40F0D4804B
:101A4C0003B030BD2046FFF769FFF9E713F0010F33
:101A5C0006D010F4807F03D0226C42F00102226485
:101A6C0013F0040F04D019B1226C42F0020222646C
:101A7C0013F0020F04D019B1226C42F0040222645C
:101A8C0013F0080F07D010F0200F00D119B1226C01
:101A9C0042F008022264226C002AD1D013F0200FED
:101AAC0002D010F0200F21D123685B6903F04003B2
:101ABC00226C12F0080F00D123B32046FFF752FE20
:101ACC0023685A6912F0400F18D05A6922F040026C
:101ADC005A61A36B73B1464A5A63A06BFFF778FA4D
:101AEC000028ADD0A06B436B9847A9E72046FFF7C1
:101AFC0015FFD9E72046FFF707FFA1E72046FFF7C0
:101B0C0003FF9DE72046FFF7FFFE0023236497E7C2
:101B1C0013F0100F86D010F0100F83D00023019318
:101B2C001368019353680193019B536913F0400FA1
:101B3C0032D0A16B0B685B689BB2002B80D0A08D60
:101B4C0098427FF67DAFE3858B69202B08D1A18D60
:101B5C00E38D9BB2C91A89B22046FFF7DEFE6FE710
:101B6C00D36823F48073D3602268536923F0010394
:101B7C0053612268536923F040035361202384F896
:101B8C003E30002323632268D36823F01003D36014
:101B9C00A06BFFF7FAF9DAE7A18DE38D9BB2C91AB6
:101BAC0089B2E38D9BB2002B3FF44AAF00293FF47E
:101BBC0047AFD36823F49073D3602268536923F042
:101BCC0001035361202384F83E30002323632268F1
:101BDC00D36823F01003D3602046FFF79EFE2FE757
:101BEC002046FFF7D8FD2BE72046FFF77FFE27E7BF
:101BFC0017190008704700000C480D490D4A0023C6
:101C0C0002E0D458C4500433C4188C42F9D30A4AA5
:101C1C000A4C002301E013600432A242FBD3FFF70D
:101C2C00E9FF00F00FF8FEF7CFFA70472000002014
:101C3C002C000020F41C00082C000020E0000020E8
:101C4C00FEE7000070B500260C4D0D4C641BA41073
:101C5C00A64209D100F022F800260A4D0A4C641B5A
:101C6C00A410A64205D170BD55F8043B9847013627
:101C7C00EEE755F8043B98470136F2E7EC1C0008F8
:101C8C00EC1C0008EC1C0008F01C00080346024485
:101C9C00934200D1704703F8011BF9E7F8B500BF78
:101CAC00F8BC08BC9E467047F8B500BFF8BC08BC31
:041CBC009E46704789
:101CC00002030405060708090A0B0C0D0E0F10107D
:101CD00000000000000000000000000001020304FA
:0C1CE000060708090000000001020304D0
:041CEC0031010008BA
:041CF0000D010008DA
:0C1CF40001000000100000000024F400BB
:0400000508001C05CE
:00000001FF
