:020000040800F2
:100000000050002085220008FD050008FF050008BB
:1000100001060008030600080506000800000000AD
:1000200000000000000000000000000007060008BB
:1000300009060008000000000B0600080D06000875
:10004000CD220008CD220008CD220008CD220008D4
:10005000CD220008CD220008CD220008CD220008C4
:10006000CD220008CD220008CD220008CD220008B4
:10007000CD220008CD220008CD220008CD220008A4
:10008000CD220008CD220008CD220008CD22000894
:10009000CD220008CD220008CD220008CD22000884
:1000A000CD220008CD220008CD220008CD22000874
:1000B00015060008CD220008CD220008CD22000838
:1000C000CD220008CD220008CD220008CD22000854
:1000D000CD22000825060008CD220008CD22000808
:1000E000CD220008CD220008CD220008000000002B
:1000F0000000000000000000000000000000000000
:0C01000000000000000000005FF808F1A3
:10010C0010B5054C237833B9044B13B10448AFF345
:10011C0000800123237010BD30000020000000007F
:10012C002823000808B5034B1BB103490348AFF360
:10013C00008008BD000000003400002028230008C7
:10014C0000B583B001F00AF9074800230360074BA0
:10015C0083603723C36001A901F0CCF901F018F9D1
:10016C0003B05DF804FB00BF500000200040000805
:10017C002DE9F84304462D4E4FF0FF330122014682
:10018C00304601F080FE2478A7B2294D4FF0FF33A2
:10019C003A462946304601F076FE043C5FFA84F874
:1001AC00C4F3850455F8246022462946214800F002
:1001BC006CFA15E0DFF874904FF0FF3301221E4902
:1001CC00484601F0F4FD1A4D4FF0FF333A462946EC
:1001DC00484601F058FE22462946164800F055FACA
:1001EC00B042E7D14FF0FF33012214490F4801F020
:1001FC00DEFD01F0B3F818F0030818BF4FF001084A
:10020C00A04400240CE00E4D094B53F8242000238D
:10021C002968022001F0FAF82B6804332B600134B2
:10022C004445F0DB01F0B4F8BDE8F883140A002073
:10023C0010050020C40900204023000844230008B6
:10024C002000002070B50A4C6568266800F0B2FAF0
:10025C0000F040FA4FF0E02300221A615A619A61D3
:10026C0003F550639C6086F30888A84770BD00BFF7
:10027C000040000872B6FEE700B591B028220021BC
:10028C0006A802F043F8002301930293039304930E
:10029C0005930223069301230A9310230B9306A8BC
:1002AC0000F002FB68B90F23019300210291039126
:1002BC000491059101A800F035FD20B911B05DF84D
:1002CC0004FBFFF7D7FFFFF7D5FF000010B500F0D8
:1002DC0037FAFFF7D1FF00F059F800F093F800F06F
:1002EC0029F900F0B5F843F2FF721F491F4800F0DE
:1002FC00CCF91F4B18604FF480511E4800F000FFE2
:10030C00E8B91D4B1B68012B19D01C4BD3F8FC2FE3
:10031C00174B1B689A4212D1134B1A684FF6FF7396
:10032C009A420CD0FFF78EFF002010BDFFF708FF9C
:10033C00134B01221A6006E01248FFF719FF104B0D
:10034C001B68002BF2D00F4C4FF0FF3301222146DB
:10035C000D4801F098FD2368012BEDD0092BEED14F
:10036C00FFF770FFEBE700BF00400008C409002056
:10037C004C000020000C014000000020001001087F
:10038C00C009002060000020140A002030B587B09E
:10039C0000240294039404940594174B9A6942F038
:1003AC0004029A619A6902F004020092009A9A6916
:1003BC0042F008029A619B6903F008030193019BC8
:1003CC000E4D22461021284600F0A1FE1023029368
:1003DC000123039304940223059302A9284600F0F9
:1003EC007DFD4FF4805302930394049402A90448B6
:1003FC0000F074FD07B030BD001002400008014051
:10040C00000C014008B50548054B036000F02EF9BF
:10041C0000B908BDFFF72EFFFBE700BFC4090020A1
:10042C00003002400268094B9A4200D0704782B0FB
:10043C00A3F500535A6942F040025A615B6903F01C
:10044C0040030193019B02B0704700BF0030024093
:10045C0000B58FB000230A930B930C930D93089364
:10046C0009930193029303930493059306930793C3
:10047C0020484FF08042026041F63F724260836038
:10048C0040F2E732C26003618023836101F032FAEB
:10049C0000BB4FF480530A930AA9164801F0E9FAFD
:1004AC00D8B9144801F052FAD0B900230893099333
:1004BC0008A9104801F04AFBA8B900220192029247
:1004CC000392059201A90B4801F09EFA70B90FB086
:1004DC005DF804FBFFF7CEFEDBE7FFF7CBFEE0E7B2
:1004EC00FFF7C8FEE1E7FFF7C5FEE6E7FFF7C2FE40
:1004FC00EDE700BFCC0900200368B3F1804F00D0BA
:10050C00704700B583B003F50433DA6942F0010299
:10051C00DA61DB6903F001030193019B00221146B0
:10052C001C2000F07BFE1C2000F0B0FE03B05DF838
:10053C0004FB000008B50A480A4B03604FF4E13392
:10054C00436000238360C36003610C2242618361BA
:10055C00C36101F0FDFB00B908BDFFF78BFEFBE7A3
:10056C00140A00200038014030B587B000230293F4
:10057C0003930493059302681B4B9A4201D007B076
:10058C0030BD03F558439A6942F480429A619A69E6
:10059C0002F480420092009A9A6942F004029A6135
:1005AC009B6903F004030193019B4FF400730293C6
:1005BC0002230393032305930C4D02A9284600F054
:1005CC008DFC4FF48063029300240394049402A9DD
:1005DC00284600F083FC22462146252000F01EFE12
:1005EC00252000F053FECAE7003801400008014006
:1005FC00FEE7FEE7FEE7FEE7FEE770477047704751
:10060C0008B500F0AFF808BD08B5024801F07BF85A
:10061C0008BD00BFCC09002008B5024801F028FD38
:10062C0008BD00BF140A002082B00E4B9A6942F03C
:10063C0001029A619A6902F001020092009ADA6949
:10064C0042F08052DA61DB6903F080530193019B25
:10065C00054A536823F0E06343F00073536002B023
:10066C00704700BF001002400000014058B110B5A7
:10067C00044643791BB101236371002010BD037143
:10068C00FFF7D0FEF7E70120704784460223437141
:10069C000068836843F0010383600023934211D206
:1006AC0000B5DCF8000051F823E0C0F800E001339D
:1006BC009342F6D3DCF80030186801238CF805302F
:1006CC005DF804FBDCF80030186801238CF8053069
:1006DC007047704710B5064B4FF0FF32DA600024BC
:1006EC001C61DA60DC60FFF7F4FF204610BD00BF30
:1006FC000010024010B504460E4B18784FF47A7374
:10070C00B3FBF0F30C4A1068B0FBF3F000F0CCFD37
:10071C0068B90F2C01D901200AE0002221464FF0C4
:10072C00FF3000F07BFD054B1C60002000E0012039
:10073C0010BD00BF240000202C0000202800002049
:10074C0008B5074A136843F010031360032000F048
:10075C0053FD0020FFF7CEFFFFF766FF002008BD1A
:10076C0000200240034A1168034B1B780B441360B2
:10077C00704700BF580A002024000020014B186865
:10078C00704700BF580A002082B0084B1B68084A0B
:10079C00A2FB03235B0A00FB03F3019300BF019B45
:1007AC005A1E0192002BF9D102B070472C00002088
:1007BC00D34D621070B5FFF7E1FF0446364A13685B
:1007CC0043F001031360344B1B6813F0020F07D185
:1007DC00FFF7D4FF001B0228F5D90324204670BD77
:1007EC002D4D2B6823F0F80343F080032B60FFF7AB
:1007FC00C5FF044600236B60274B5B6813F00C0F9E
:10080C0008D0FFF7BBFF001B41F288339842F3D9A5
:10081C000324E3E7214B224A1A60224B1868FFF7A6
:10082C0069FF044608B10124D8E7FFF7A7FF054686
:10083C00194A136823F080731360174B1B6813F06D
:10084C00007F06D0FFF79AFF401B0228F5D903243E
:10085C00C4E7114E00237360FFF790FF0546336821
:10086C0023F4102333600C4B1B6813F4003F06D0A9
:10087C00FFF784FF401B6428F5D90324AEE7064B31
:10088C001A6822F480221A605A6A42F080725A6204
:10089C0000229A60A2E700BF001002402C0000204A
:1008AC0000127A0028000020002800F0F18170B5B9
:1008BC0082B00446036813F0010F2CD0994B5B688F
:1008CC0003F00C03042B1DD0964B5B6803F00C0358
:1008DC00082B12D06368B3F5803F41D0002B55D163
:1008EC0003F1804303F504331A6822F480321A6052
:1008FC001A6822F480221A6037E08A4B5B6813F482
:10090C00803FE7D0874B1B6813F4003F03D063682C
:10091C00002B00F0BF81236813F0020F75D0814BC0
:10092C005B6813F00C0F5FD07E4B5B6803F00C031D
:10093C00082B54D02369002B00F08A807A4B0122BB
:10094C001A60FFF71BFF0546764B1B6813F0020F6E
:10095C0075D1FFF713FF401B0228F5D903209EE148
:10096C00704A136843F480331360636843B3FFF732
:10097C0005FF05466B4B1B6813F4003FCBD1FFF70B
:10098C00FDFE401B6428F5D9032088E1B3F5A02FA8
:10099C0009D0644B1A6822F480321A601A6822F467
:1009AC0080221A60E1E703F18043A3F53C331A6817
:1009BC0042F480221A601A6842F480321A60D4E73A
:1009CC00FFF7DCFE0546574B1B6813F4003FA2D023
:1009DC00FFF7D4FE401B6428F5D903205FE1514B8F
:1009EC005B6813F4803FA5D14E4B1B6813F0020FCC
:1009FC0003D02369012B40F04F814A4A136823F03E
:100A0C00F803616943EAC1031360236813F0080F0C
:100A1C0033D0A369002B5CD0434B0122C3F8802454
:100A2C00FFF7ACFE05463F4B5B6A13F0020F21D17A
:100A3C00FFF7A4FE401B0228F5D903202FE1394A09
:100A4C00136823F0F803616943EAC1031360DCE720
:100A5C00354B00221A60FFF791FE0546314B1B689F
:100A6C0013F0020FD1D0FFF789FE401B0228F5D9F5
:100A7C00032014E10120FFF787FE236813F0040F15
:100A8C0000F09680274BDB6913F0805F34D1254B47
:100A9C00DA6942F08052DA61DB6903F0805301932A
:100AAC00019B0125214B1B6813F4807F26D0E36842
:100ABC00012B3DD0002B53D103F1804303F50433BC
:100ACC001A6A22F001021A621A6A22F004021A62ED
:100ADC0033E0154B0022C3F88024FFF74FFE054688
:100AEC00104B5B6A13F0020FC7D0FFF747FE401B99
:100AFC000228F5D90320D2E00025D3E70B4A13686E
:100B0C0043F480731360FFF739FE0646074B1B68EE
:100B1C0013F4807FCBD1FFF731FE801B6428F5D90D
:100B2C000320BCE000100240000042420070004074
:100B3C005F4A136A43F001031362E36833B3FFF7B0
:100B4C001DFE06465A4B1B6A13F0020F2FD1FFF7FE
:100B5C0015FE801B41F288339842F3D903209EE0A6
:100B6C00052B09D0524B1A6A22F001021A621A6A3A
:100B7C0022F004021A62E0E74D4B1A6A42F00402BA
:100B8C001A621A6A42F001021A62D6E7FFF7F6FD02
:100B9C000646474B1B6A13F0020F08D0FFF7EEFD19
:100BAC00801B41F288339842F3D9032077E0E5B9F2
:100BBC00E369002B72D03E4A526802F00C02082AFC
:100BCC0056D0022B17D03B4B00221A66FFF7D6FDEE
:100BDC000446374B1B6813F0007F47D0FFF7CEFD60
:100BEC00001B0228F5D9032059E0314AD36923F0C0
:100BFC008053D361DCE72F4B00221A66FFF7BEFD52
:100C0C0005462B4B1B6813F0007F06D0FFF7B6FD93
:100C1C00401B0228F5D9032041E0236AB3F5803F3D
:100C2C001AD023494B6823F47413226A606A024376
:100C3C0013434B601F4B01221A66FFF79FFD0446BE
:100C4C001B4B1B6813F0007F0ED1FFF797FD001BA9
:100C5C000228F5D9032022E0154A536823F4003307
:100C6C00A1680B435360DCE7002018E0002016E07D
:100C7C00012B16D00E4B5B6803F48031226A914233
:100C8C0011D103F47013626A93420ED1002006E076
:100C9C0001207047012002E0012000E0002002B09A
:100CAC0070BD0120FBE70120F9E70120F7E700BF49
:100CBC00001002400000424286B0164B0FCB0DF1E3
:100CCC00180C0CE90F0040F20123ADF80430124B64
:100CDC005B6803F00C02082A02D0104806B070477B
:100CEC00C3F38342624412F8100C13F4803F0CD00F
:100CFC00094B5B68C3F34043634413F8143C074A45
:100D0C0002FB00F0B0FBF3F0E8E7054B03FB00F04F
:100D1C00E4E700BF482300080010024000127A00EC
:100D2C0000093D00002800F0A08070B50D46044677
:100D3C00524B1B6803F007038B420BD24F4A1368CC
:100D4C0023F007030B431360136803F007038B4274
:100D5C0040F08D80236813F0020F17D013F0040FAE
:100D6C0004D0474A536843F4E0635360236813F09C
:100D7C00080F04D0424A536843F460535360404A0E
:100D8C00536823F0F003A1680B435360236813F0FE
:100D9C00010F31D06368012B20D0022B25D0384AAB
:100DAC00126812F0020F64D035494A6822F003022F
:100DBC0013434B60FFF7E2FC0646314B5B6803F0D4
:100DCC000C036268B3EB820F16D0FFF7D7FC801BC5
:100DDC0041F288339842F0D9032045E0284A126842
:100DEC0012F4003FE0D101203EE0254A126812F0D7
:100DFC00007FD9D1012037E0204B1B6803F007039B
:100E0C00AB420AD91D4A136823F007032B43136026
:100E1C00136803F00703AB422DD1236813F0040FC2
:100E2C0006D0174A536823F4E063E1680B43536020
:100E3C00236813F0080F07D0114A536823F460534A
:100E4C00216943EAC1035360FFF736FF0C4B5B6823
:100E5C00C3F303130B4AD35CD8400B4B18600B4BFA
:100E6C001868FFF747FC002070BD01207047012077
:100E7C00FAE70120F8E70120F6E700BF0020024066
:100E8C00001002405C2300082C00002028000020E9
:100E9C00014B1868704700BF2C00002008B5FFF705
:100EAC00F7FF044B5B68C3F30223034AD35CD840BF
:100EBC0008BD00BF001002406C23000808B5FFF706
:100ECC00E7FF044B5B68C3F3C223034AD35CD840EF
:100EDC0008BD00BF001002406C23000870B582B042
:100EEC000024A446A6E0804DAA4210D007D97F4D1D
:100EFC00AA420CD005F58035AA4208D013E0A5F51E
:100F0C008015AA4203D005F57025AA4207D18A683C
:100F1C00002A58D0012A51D04361082403E0A5F5DA
:100F2C008015AA42F3D0BEF1FF0F4ED80646BEF193
:100F3C00FF0F4CD84FEA8C0233680F25954023EAFB
:100F4C00050304FA02F2134333604B6813F0805F1D
:100F5C006ED0674B9A6942F001029A619B6903F06B
:100F6C0001030193019B4FEA9C02951C614B53F8C2
:100F7C0025600CF003039D000F23AB4026EA03060B
:100F8C005D4B984229D003F58063984200F08E8027
:100F9C0003F58063984200F08B8003F580639842E0
:100FAC0019D004231AE0CC68BDE7CC680434BAE746
:100FBC00CC680834B7E7CC680C34B4E70361082478
:100FCC00B1E70024AFE70424ADE7061DAFE7ACF1B1
:100FDC0008029200B0E7032300E00023AB40334348
:100FEC000232444D45F822304B6813F4803F61D0F7
:100FFC00424A136843EA0E0313604B6813F4003F34
:10100C005ED03E4A536843EA0E0353604B6813F4B8
:10101C00801F5BD0394A936843EA0E0393604B6898
:10102C0013F4001F58D0354AD36843EA0E03D3603B
:10103C000CF1010C0A6832FA0CF353D0012303FAB9
:10104C000CF302EA030E33EA0202F1D14A68122AC7
:10105C003FF649AF122A3FF666AF01A555F822F0CC
:10106C001B0F0008B30F0008BD0F0008CF0F0008BE
:10107C00330F0008330F0008330F0008330F00083C
:10108C00330F0008330F0008330F0008330F00082C
:10109C00330F0008330F0008330F0008330F00081C
:1010AC00330F0008B70F0008C30F0008012395E7A2
:1010BC00022393E7114A136823EA0E0313609CE79B
:1010CC000E4A536823EA0E0353609FE70B4A93685A
:1010DC0023EA0E039360A2E7084AD36823EA0E03BF
:1010EC00D360A5E702B070BD0000221000003110E3
:1010FC0000100240000001400008014000040140C3
:10110C008368194201D001207047002070470AB152
:10111C000161704709040161704790F82130022B7E
:10112C0006D004238363002380F82030012070470D
:10113C000268136823F00E0313600268136823F02F
:10114C0001031360036CC16B012202FA03F34B60C1
:10115C0080F82120002380F82030184670470000CA
:10116C0008B590F82130022B03D0042383630120AF
:10117C0008BD0268136823F00E031360026813683D
:10118C0023F0010313600368194A934214D01432FC
:10119C0093421FD0143293421ED0143293421ED06D
:1011AC00143293421ED01432934202D04FF080720C
:1011BC0003E04FF4801200E001220E4B5A60012331
:1011CC0080F82130002380F82030436B6BB19847B6
:1011DC000020CDE71022F0E74FF48072EDE74FF4DA
:1011EC008052EAE74FF48032E7E70020C0E700BF07
:1011FC000800024000000240074AD36823F4E06371
:10120C001B041B0C000200F4E060034343F0BF63BB
:10121C0043F40033D360704700ED00E000B5194B88
:10122C00DB68C3F30223C3F1070CBCF1040F28BF26
:10123C004FF0040C03F1040EBEF1060F18D9033B5A
:10124C004FF0FF3E0EFA0CFC21EA0C0199400EFA0D
:10125C0003F322EA0303194300280BDB0901C9B28B
:10126C0000F1604000F5614080F800135DF804FB6C
:10127C000023E5E700F00F000901C9B2024B195435
:10128C00F4E700BF00ED00E014ED00E0002807DB00
:10129C0000F01F02400901239340024A42F820301B
:1012AC00704700BF00E100E00138B0F1807F0BD245
:1012BC004FF0E0235861054AF02182F823100020FA
:1012CC00986107221A6170470120704700ED00E019
:1012DC00044B0022DA61044A136943F001031361E1
:1012EC0001807047600A002000200240194BDB6827
:1012FC0013F0100305D0184AD36943F00203D361ED
:10130C001023144AD26812F0040F06D01249CA698D
:10131C0042F00102CA6143F004030E4AD26912F092
:10132C00010F09D00C49CA6942F00402CA6109498B
:10133C00CA6922F00102CA6140F20112934202D042
:10134C00044AD3607047034AD36923F00103D36185
:10135C00704700BF00200240600A00200A4B1B6946
:10136C0013F0800F0BD0084B084A5A6002F18832F8
:10137C005A601B6913F0800F03D1002070470020C6
:10138C0070470120704700BF0020024023016745D1
:10139C00034A136943F0800313610020704700BFB8
:1013AC000020024038B50446FFF7E8F90546164B15
:1013BC00DB6813F0010F0AD0B4F1FF3FF7D024B172
:1013CC00FFF7DCF9401BA042F1D903201BE00E4BC8
:1013DC00DB6813F0200F02D00B4B2022DA600A4B93
:1013EC00DB6813F0100F0BD1074BDB6913F0010F07
:1013FC0006D1054BDB6813F0040F01D1002002E08D
:10140C00FFF774FF012038BD002002402DE9F8439E
:10141C001E46244B1B7E012B41D004460F469046A2
:10142C00204B01221A764CF25030FFF7BBFF0346DB
:10143C0078BB012C08D0022C03D04FF004091C46B9
:10144C0007E04FF00209FAE74FF00109F7E7013422
:10145C00E4B24C451DD22101C1F12002A1F12003BF
:10146C0028FA01F106FA02F2114326FA03F31943A2
:10147C0089B207EB4400FFF72BFF4CF25030FFF71B
:10148C0091FF094B1D6925F001051D6103460028DC
:10149C00DDD0044A002111761846BDE8F8830223FA
:1014AC00FAE700BF600A002000200240064B002231
:1014BC00DA61064B1A6942F004021A611A6942F0A9
:1014CC0040021A61704700BF600A002000200240F1
:1014DC00064B0022DA61064B1A6942F002021A61CD
:1014EC0058611A6942F040021A617047600A002084
:1014FC0000200240264B1B7E012B46D070B50546C2
:10150C000E46234B01221A760368022B20D04CF294
:10151C005030FFF747FF90BB4FF0FF333360AC68A0
:10152C000121EA68AB6803EB8223A34228D9204649
:10153C00FFF7CEFF4CF25030FFF734FF154A13691A
:10154C0023F0020313610146B8B904F58064E8E79F
:10155C004CF25030FFF726FF08B1012110E00120BA
:10156C00FFF7A4FF4CF25030FFF71CFF0146094A6D
:10157C00136923F00403136102E0346000E00121DD
:10158C00034B00221A76084670BD022108467047AC
:10159C00600A00200020024070B4036A23F00103AB
:1015AC000362036A4668826922F073020C6844EA9B
:1015BC00020523F002028B6813430D4CA04209D0A4
:1015CC000B4CA0420DD0466085614A6842630362B1
:1015DC0070BC704723F00803CA68134323F004035C
:1015EC00EEE726F440764A6932438E691643EAE701
:1015FC00002C014030B4036A23F480730362036A45
:10160C004568C26922F073020C68224323F400730C
:10161C008C6843EA04230F4CA04209D00D4CA04225
:10162C000ED04560C2614A68C263036230BC704729
:10163C0023F40063CC6843EA042323F48063EDE7CE
:10164C0025F440554C6945EA04158C6945EA0415A6
:10165C00E7E700BF002C014030B4036A23F4805349
:10166C000362036A4468C26922F4E6420D6842EAE6
:10167C00052223F400538D6843EA0533074DA84235
:10168C0006D04460C2614A680264036230BC704791
:10169C0024F480444D6944EA8514F2E7002C01409F
:1016AC0010B4036A046A24F001040462846924F00F
:1016BC00F00C4CEA021223F00A030B438261036222
:1016CC0010BC704710B4046A24F0100404628469DE
:1016DC00036A24F4704C4CEA023223F0A00343EA70
:1016EC0001138261036210BC7047836823F070039E
:1016FC000B4343F007038360704770477047704794
:10170C0070477047704710B5044603681A6912F0A9
:10171C00020F11D0DA6812F0020F0DD06FF0020236
:10172C001A610123037703689B6913F0030F70D0D0
:10173C00FFF7E6FF0023237723681A6912F0040FE2
:10174C0012D0DA6812F0040F0ED06FF004021A6196
:10175C000223237723689B6913F4407F5FD02046D4
:10176C00FFF7CEFF0023237723681A6912F0080FC6
:10177C0012D0DA6812F0080F0ED06FF008021A615E
:10178C00042323772368DB6913F0030F4ED0204624
:10179C00FFF7B6FF0023237723681A6912F0100FA6
:1017AC0012D0DA6812F0100F0ED06FF010021A611E
:1017BC00082323772368DB6913F4407F3DD0204650
:1017CC00FFF79EFF0023237723681A6912F0010F9D
:1017DC0003D0DA6812F0010F36D123681A6912F0BF
:1017EC00800F03D0DA6812F0800F34D123681A69A5
:1017FC0012F0400F03D0DA6812F0400F32D1236898
:10180C001A6912F0200F03D0DA6812F0200F30D1D1
:10181C0010BDFFF774FF2046FFF773FF8AE72046E1
:10182C00FFF76DFF2046FFF76CFF9BE72046FFF7A5
:10183C0066FF2046FFF765FFACE72046FFF75FFF2A
:10184C002046FFF75EFFBDE76FF001021A612046EC
:10185C00FFF754FFC1E76FF080021A61204600F0D9
:10186C00ACF9C3E76FF040021A612046FFF74AFF5C
:10187C00C5E76FF020021A61204600F09DF9C7E71A
:10188C0003681B4A90420AD0B0F1804F07D0A2F5F2
:10189C009432904203D002F58062904203D123F03F
:1018AC0070034A681343124A90420AD0B0F1804F39
:1018BC0007D0A2F59432904203D002F58062904298
:1018CC0003D123F44073CA68134323F080034A699D
:1018DC00134303608B68C3620B688362044B9842AA
:1018EC0002D00123436170470B690363F9E700BF22
:1018FC00002C014040B310B5044690F83D30F3B1D4
:10190C00022384F83D30214651F8040BFFF7B8FF51
:10191C00012384F8463084F83E3084F83F3084F854
:10192C00403084F8413084F8423084F8433084F8F5
:10193C00443084F8453084F83D30002010BD80F8E8
:10194C003C30FEF7D9FDDBE70120704740B310B502
:10195C00044690F83D30F3B1022384F83D30214623
:10196C0051F8040BFFF78CFF012384F8463084F800
:10197C003E3084F83F3084F8403084F8413084F8AD
:10198C00423084F8433084F8443084F8453084F88D
:10199C003D30002010BD80F83C30FFF7AEFEDBE799
:1019AC000120704730B4036A23F010030362036A0A
:1019BC004468826922F4E6420D6842EA052223F06B
:1019CC0020038D6843EA05130E4DA84209D00D4D36
:1019DC00A8420ED0446082614A688263036230BCC4
:1019EC00704723F08003CD6843EA051323F04003CE
:1019FC00EDE724F440644D6944EA85048D6944EABA
:101A0C008504E7E7002C014090F83C30012B22D0F4
:101A1C0010B50446012380F83C300C2A0BD8DFE8C3
:101A2C0002F0070A0A0A0E0A0A0A120A0A0A160021
:101A3C000068FFF7B1FD002084F83C0010BD006881
:101A4C00FFF7B0FFF7E70068FFF7D4FDF3E7006896
:101A5C00FFF702FEEFE70220704710B4846824F40D
:101A6C007F4C42EA03220A4342EA0C02826010BC19
:101A7C00704790F83C30012B66D010B5044601231A
:101A8C0080F83C30022380F83D300268936823F4E0
:101A9C007F4323F0770393600B68602B40D022D8F0
:101AAC00402B47D00BD9502B0ED1CA68496800681F
:101ABC00FFF7F6FD50212068FFF717FE04E0202BFE
:101ACC000CD008D9302B09D0012384F83D300020EC
:101ADC0084F83C0010BD0BB1102BF5D119462068D1
:101AEC00FFF703FEF0E7702B0ED0B3F5005FEBD1E0
:101AFC00CB684A6889680068FFF7AFFF2268936873
:101B0C0043F480439360DFE7CB684A6889680068D8
:101B1C00FFF7A3FF2268936843F077039360D3E742
:101B2C00CA6849680068FFF7CDFD60212068FFF79F
:101B3C00DCFDC9E7CA6849680068FFF7B1FD4021C0
:101B4C002068FFF7D2FDBFE70220704790F83C30C9
:101B5C00012B2CD010B4012380F83C30022380F8E8
:101B6C003D3003685A689C6822F0700C0A6842EA9F
:101B7C000C025A6003680F4A93420AD0B3F1804FAB
:101B8C0007D0A2F59432934203D002F580629342BF
:101B9C0004D124F080044A6814439C60012380F82B
:101BAC003D30002380F83C30184610BC70470220B2
:101BBC00704700BF002C0140704770470268D36823
:101BCC0023F49073D3600268536923F001035361CB
:101BDC00036B012B05D0202380F83E3000230363D8
:101BEC0070470268D36823F01003D360F3E790F8D2
:101BFC003D30DBB2212B01D0022070478368B3F556
:101C0C00805F17D0036A5A1C02621A7803685A6004
:101C1C00C38C9BB2013B9BB2C3844BB90268D368A3
:101C2C0023F08003D3600268D36843F04003D36091
:101C3C00002070470369002BE4D1036A1B880268FB
:101C4C00C3F308035360036A02330362E0E7000046
:101C5C0010B504460268136923F44053C1680B4362
:101C6C00136183680269134342691A430168CB68A4
:101C7C0023F4B05323F00C031343CB600268536975
:101C8C0023F4407381690B4353610268134B9A42EE
:101C9C0020D0FFF703F9024602EB820202EB82022C
:101CAC0063689B00B2FBF3F20D48A0FB02314909BB
:101CBC00642303FB11231B013233A0FB03235B09B9
:101CCC0003F0F00202EB011203F00F03216813443E
:101CDC008B6010BDFFF7F2F80246DDE700380140DB
:101CEC001F85EB512DE9F84305460F4616469946DC
:101CFC00DDF820802C68246837EA04030CBF4FF011
:101D0C00010C4FF0000CB4451FD1B8F1FF3FF1D0DE
:101D1C00B8F1000F05D0FEF731FDA0EB09004045EE
:101D2C00E8D92A68D36823F4D073D3602A6853693E
:101D3C0023F001035361202385F83D3085F83E30B4
:101D4C00002385F83C30032000E00020BDE8F88338
:101D5C0058B310B5044690F83D300BB3242384F8E7
:101D6C003D302268D36823F40053D3602046FFF73C
:101D7C006FFF2268136923F490431361226853693F
:101D8C0023F02A0353612268D36843F40053D360D1
:101D9C0000202064202384F83D3084F83E3010BDB0
:101DAC0080F83C30FEF7E0FBD8E7012070472DE9C6
:101DBC00F04182B01E4690F83D30DBB2202B54D15E
:101DCC0004460D469046002953D0002A53D090F873
:101DDC003C30012B51D0012380F83C3000230364AC
:101DEC00212380F83D30FEF7C9FC0746A4F8248077
:101DFC00A4F82680A368B3F5805F05D04FF00008E7
:101E0C00002384F83C3012E0236913B14FF0000832
:101E1C00F6E7A8460025F3E738F8023B2268C3F33F
:101E2C0008035360E28C92B2013A92B2E284E38CE2
:101E3C009BB273B100963B46002280212046FFF7EF
:101E4C0051FFE0B9002DE7D015F8012B23685A603B
:101E5C00E8E700963B46002240212046FFF742FF70
:101E6C0078B9202384F83D3000E0022002B0BDE8B0
:101E7C00F0810120FAE70120F8E70220F6E70320C1
:101E8C00F4E70320F2E72DE9F04182B01E4690F80A
:101E9C003E30DBB2202B5CD104460D469046002927
:101EAC005BD0002A5BD090F83C30012B59D0012339
:101EBC0080F83C3000230364222280F83E20036328
:101ECC00FEF75CFC0746A4F82C80A4F82E80A368CF
:101EDC00B3F5805F05D04FF00008002384F83C3048
:101EEC0017E0236913B14FF00008F6E7A846002568
:101EFC00F3E723685B68C3F3080328F8023B03E0AD
:101F0C0023685B682B700135E28D92B2013A92B274
:101F1C00E285E38D9BB2BBB100963B4600222021AB
:101F2C002046FFF7DFFEF0B9002DE2D0A368B3F531
:101F3C00805FE5D013B92369002BE1D023685B687F
:101F4C0003F07F032B70DEE7202384F83E30002063
:101F5C0000E0022002B0BDE8F0810120FAE7012088
:101F6C00F8E70220F6E70320F4E7704708B50168AC
:101F7C00CA6822F04002CA60202280F83D20FFF798
:101F8C00F4FF002008BD7047704708B5406A002375
:101F9C00C385C384FFF7F8FF08BD704790F83E3047
:101FAC00DBB2222B60D18368B3F5805F46D0826AA6
:101FBC00B3F5805F04D0002B4DD10369002B4AD1BF
:101FCC0003685B681370836A01338362C38D9BB2B1
:101FDC00013B9BB2C385002B48D100B583B002688E
:101FEC00D36823F02003D3600268D36823F4807392
:101FFC00D3600268536923F001035361202380F8F6
:10200C003E30036B012B2CD1002303630268D36891
:10201C0023F01003D36003681A6812F0100F06D077
:10202C00002201921A6801925B680193019B818DD9
:10203C00FFF7B3FF002003B05DF804FB0269002A30
:10204C00B5D1826A03685B68C3F308031380836AA3
:10205C0002338362BAE703685B6803F07F03137093
:10206C00B1E7FFF790FFE5E70220704700207047CB
:10207C0030B583B0044602681368D068516913F018
:10208C000F0505D113F0200F02D010F0200F19D13D
:10209C002DB111F0010119D110F4907F16D1216BE3
:1020AC00012975D013F0800F03D010F0800F40F091
:1020BC00D78013F0400F03D010F0400F40F0D480C5
:1020CC0003B030BD2046FFF769FFF9E713F0010FAD
:1020DC0006D010F4807F03D0226C42F001022264FF
:1020EC0013F0040F04D019B1226C42F002022264E6
:1020FC0013F0020F04D019B1226C42F004022264D6
:10210C0013F0080F07D010F0200F00D119B1226C7A
:10211C0042F008022264226C002AD1D013F0200F66
:10212C0002D010F0200F21D123685B6903F040032B
:10213C00226C12F0080F00D123B32046FFF73EFDAE
:10214C0023685A6912F0400F18D05A6922F04002E5
:10215C005A61A36B73B1464A5A63A06BFFF700F840
:10216C000028ADD0A06B436B9847A9E72046FFF73A
:10217C0015FFD9E72046FFF707FFA1E72046FFF739
:10218C0003FF9DE72046FFF7FFFE0023236497E73C
:10219C0013F0100F86D010F0100F83D00023019392
:1021AC001368019353680193019B536913F0400F1B
:1021BC0032D0A16B0B685B689BB2002B80D0A08DDA
:1021CC0098427FF67DAFE3858B69202B08D1A18DDA
:1021DC00E38D9BB2C91A89B22046FFF7DEFE6FE78A
:1021EC00D36823F48073D3602268536923F001030E
:1021FC0053612268536923F040035361202384F810
:10220C003E30002323632268D36823F01003D3608D
:10221C00A06BFEF782FFDAE7A18DE38D9BB2C91AA2
:10222C0089B2E38D9BB2002B3FF44AAF00293FF4F7
:10223C0047AFD36823F49073D3602268536923F0BB
:10224C0001035361202384F83E300023236322686A
:10225C00D36823F01003D3602046FFF79EFE2FE7D0
:10226C002046FFF7C4FC2BE72046FFF77FFE27E74D
:10227C00971F0008704700000C480D490D4A0023B9
:10228C0002E0D458C4500433C4188C42F9D30A4A1F
:10229C000A4C002301E013600432A242FBD3FFF787
:1022AC00E9FF00F00FF8FEF711F87047200000204E
:1022BC00300000207C23000830000020800A002021
:1022CC00FEE7000070B500260C4D0D4C641BA410ED
:1022DC00A64209D100F022F800260A4D0A4C641BD4
:1022EC00A410A64205D170BD55F8043B98470136A1
:1022FC00EEE755F8043B98470136F2E774230008E3
:10230C007423000874230008782300080346024451
:10231C00934200D1704703F8011BF9E7F8B500BFF1
:10232C00F8BC08BC9E467047F8B500BFF8BC08BCAA
:04233C009E46704702
:102340003000000031000000020304050607080900
:102350000A0B0C0D0E0F1010000000000000000012
:102360000000000001020304060708090000000045
:04237000010203045F
:04237400310100082B
:042378000D0100084B
:10237C000040000801000000100000000024F400E0
:040000050800228548
:00000001FF
